{
  "contractName": "Election",
  "abi": [
    {
      "anonymous": false,
      "inputs": [
        {
          "indexed": true,
          "internalType": "uint256",
          "name": "_candidateId",
          "type": "uint256"
        }
      ],
      "name": "votedEvent",
      "type": "event"
    },
    {
      "constant": true,
      "inputs": [
        {
          "internalType": "uint256",
          "name": "",
          "type": "uint256"
        }
      ],
      "name": "candidates",
      "outputs": [
        {
          "internalType": "uint256",
          "name": "id",
          "type": "uint256"
        },
        {
          "internalType": "string",
          "name": "name",
          "type": "string"
        },
        {
          "internalType": "string",
          "name": "lastname",
          "type": "string"
        },
        {
          "internalType": "string",
          "name": "jobTitle",
          "type": "string"
        },
        {
          "internalType": "uint256",
          "name": "voteCount",
          "type": "uint256"
        }
      ],
      "payable": false,
      "stateMutability": "view",
      "type": "function"
    },
    {
      "constant": true,
      "inputs": [],
      "name": "candidatesCount",
      "outputs": [
        {
          "internalType": "uint256",
          "name": "",
          "type": "uint256"
        }
      ],
      "payable": false,
      "stateMutability": "view",
      "type": "function"
    },
    {
      "constant": true,
      "inputs": [
        {
          "internalType": "address",
          "name": "",
          "type": "address"
        }
      ],
      "name": "voters",
      "outputs": [
        {
          "internalType": "bool",
          "name": "",
          "type": "bool"
        }
      ],
      "payable": false,
      "stateMutability": "view",
      "type": "function"
    },
    {
      "constant": false,
      "inputs": [
        {
          "internalType": "string",
          "name": "_populated",
          "type": "string"
        }
      ],
      "name": "setPop",
      "outputs": [],
      "payable": false,
      "stateMutability": "nonpayable",
      "type": "function"
    },
    {
      "constant": true,
      "inputs": [],
      "name": "getPop",
      "outputs": [
        {
          "internalType": "string",
          "name": "",
          "type": "string"
        }
      ],
      "payable": false,
      "stateMutability": "view",
      "type": "function"
    },
    {
      "constant": false,
      "inputs": [],
      "name": "Candidates",
      "outputs": [],
      "payable": false,
      "stateMutability": "nonpayable",
      "type": "function"
    },
    {
      "constant": false,
      "inputs": [
        {
          "internalType": "uint256",
          "name": "_candidateId",
          "type": "uint256"
        }
      ],
      "name": "vote",
      "outputs": [],
      "payable": false,
      "stateMutability": "nonpayable",
      "type": "function"
    }
  ],
  "bytecode": "0x60806040526040518060400160405280600181526020017f30000000000000000000000000000000000000000000000000000000000000008152506000908051906020019061004f929190610062565b5034801561005c57600080fd5b50610107565b828054600181600116156101000203166002900490600052602060002090601f016020900481019282601f106100a357805160ff19168380011785556100d1565b828001600101855582156100d1579182015b828111156100d05782518255916020019190600101906100b5565b5b5090506100de91906100e2565b5090565b61010491905b808211156101005760008160009055506001016100e8565b5090565b90565b610c1c806101166000396000f3fe608060405234801561001057600080fd5b506004361061007d5760003560e01c80634b9428bf1161005b5780634b9428bf1461025b5780634ca19cd914610316578063a3ec138d14610399578063cd76410c146103f55761007d565b80630121b93f146100825780632d35a8a2146100b05780633477ee2e146100ce575b600080fd5b6100ae6004803603602081101561009857600080fd5b81019080803590602001909291905050506103ff565b005b6100b861051e565b6040518082815260200191505060405180910390f35b6100fa600480360360208110156100e457600080fd5b8101908080359060200190929190505050610524565b60405180868152602001806020018060200180602001858152602001848103845288818151815260200191508051906020019080838360005b8381101561014e578082015181840152602081019050610133565b50505050905090810190601f16801561017b5780820380516001836020036101000a031916815260200191505b50848103835287818151815260200191508051906020019080838360005b838110156101b4578082015181840152602081019050610199565b50505050905090810190601f1680156101e15780820380516001836020036101000a031916815260200191505b50848103825286818151815260200191508051906020019080838360005b8381101561021a5780820151818401526020810190506101ff565b50505050905090810190601f1680156102475780820380516001836020036101000a031916815260200191505b509850505050505050505060405180910390f35b6103146004803603602081101561027157600080fd5b810190808035906020019064010000000081111561028e57600080fd5b8201836020820111156102a057600080fd5b803590602001918460018302840111640100000000831117156102c257600080fd5b91908080601f016020809104026020016040519081016040528093929190818152602001838380828437600081840152601f19601f820116905080830192505050505050509192919290505050610722565b005b61031e61073c565b6040518080602001828103825283818151815260200191508051906020019080838360005b8381101561035e578082015181840152602081019050610343565b50505050905090810190601f16801561038b5780820380516001836020036101000a031916815260200191505b509250505060405180910390f35b6103db600480360360208110156103af57600080fd5b81019080803573ffffffffffffffffffffffffffffffffffffffff1690602001909291905050506107de565b604051808215151515815260200191505060405180910390f35b6103fd6107fe565b005b600160003373ffffffffffffffffffffffffffffffffffffffff1673ffffffffffffffffffffffffffffffffffffffff16815260200190815260200160002060009054906101000a900460ff161561045657600080fd5b60008111801561046857506003548111155b61047157600080fd5b60018060003373ffffffffffffffffffffffffffffffffffffffff1673ffffffffffffffffffffffffffffffffffffffff16815260200190815260200160002060006101000a81548160ff0219169083151502179055506002600082815260200190815260200160002060040160008154809291906001019190505550807ffff3c900d938d21d0990d786e819f29b8d05c1ef587b462b939609625b684b1660405160405180910390a250565b60035481565b6002602052806000526040600020600091509050806000015490806001018054600181600116156101000203166002900480601f0160208091040260200160405190810160405280929190818152602001828054600181600116156101000203166002900480156105d65780601f106105ab576101008083540402835291602001916105d6565b820191906000526020600020905b8154815290600101906020018083116105b957829003601f168201915b505050505090806002018054600181600116156101000203166002900480601f0160208091040260200160405190810160405280929190818152602001828054600181600116156101000203166002900480156106745780601f1061064957610100808354040283529160200191610674565b820191906000526020600020905b81548152906001019060200180831161065757829003601f168201915b505050505090806003018054600181600116156101000203166002900480601f0160208091040260200160405190810160405280929190818152602001828054600181600116156101000203166002900480156107125780601f106106e757610100808354040283529160200191610712565b820191906000526020600020905b8154815290600101906020018083116106f557829003601f168201915b5050505050908060040154905085565b8060009080519060200190610738929190610ac2565b5050565b606060008054600181600116156101000203166002900480601f0160208091040260200160405190810160405280929190818152602001828054600181600116156101000203166002900480156107d45780601f106107a9576101008083540402835291602001916107d4565b820191906000526020600020905b8154815290600101906020018083116107b757829003601f168201915b5050505050905090565b60016020528060005260406000206000915054906101000a900460ff1681565b6108a86040518060400160405280600681526020017f42617261636b00000000000000000000000000000000000000000000000000008152506040518060400160405280600581526020017f4f62616d610000000000000000000000000000000000000000000000000000008152506040518060400160405280601081526020017f4120676f6f6420507265736964656e74000000000000000000000000000000008152506109fe565b6109526040518060400160405280600381526020017f4a6f6500000000000000000000000000000000000000000000000000000000008152506040518060400160405280600581526020017f426964656e0000000000000000000000000000000000000000000000000000008152506040518060400160405280601781526020017f412077652077696c6c2073656520507265736964656e740000000000000000008152506109fe565b6109fc6040518060400160405280600681526020017f446f6e616c6400000000000000000000000000000000000000000000000000008152506040518060400160405280600581526020017f5472756d700000000000000000000000000000000000000000000000000000008152506040518060400160405280601981526020017f41206772656174207069656365206f662063616b65203a2920000000000000008152506109fe565b565b6003600081548092919060010191905055506040518060a0016040528060035481526020018481526020018381526020018281526020016000815250600260006003548152602001908152602001600020600082015181600001556020820151816001019080519060200190610a75929190610b42565b506040820151816002019080519060200190610a92929190610b42565b506060820151816003019080519060200190610aaf929190610b42565b5060808201518160040155905050505050565b828054600181600116156101000203166002900490600052602060002090601f016020900481019282601f10610b0357805160ff1916838001178555610b31565b82800160010185558215610b31579182015b82811115610b30578251825591602001919060010190610b15565b5b509050610b3e9190610bc2565b5090565b828054600181600116156101000203166002900490600052602060002090601f016020900481019282601f10610b8357805160ff1916838001178555610bb1565b82800160010185558215610bb1579182015b82811115610bb0578251825591602001919060010190610b95565b5b509050610bbe9190610bc2565b5090565b610be491905b80821115610be0576000816000905550600101610bc8565b5090565b9056fea265627a7a72315820e22698d6e6a9756718f5548f4bf72da98242a642e801990c81db47d1d6b6bb5064736f6c63430005100032",
  "source": "pragma solidity ^0.5.16;\r\n\r\ncontract Election {\r\n\r\n    //are Candidates in the list?\r\n    string  populated = \"0\" ;\r\n    // Model a Candidate\r\n    struct Candidate {\r\n        uint id;\r\n        string name;\r\n        string lastname;\r\n        string jobTitle;\r\n        uint voteCount;\r\n\r\n\r\n    }\r\n    function setPop(string memory _populated) public{\r\n        populated = _populated;\r\n    }\r\n\r\n    function getPop() public view returns (string memory)\r\n    {\r\n        return populated;\r\n    }\r\n    // Store accounts that have voted\r\n    mapping(address => bool) public voters;\r\n    // Store Candidates\r\n\r\n    // Fetch Candidate\r\n    mapping(uint => Candidate) public candidates;\r\n\r\n\r\n    // Store Candidates Count\r\n    uint public candidatesCount;\r\n\r\n    // voted event\r\n    event votedEvent (\r\n        uint indexed _candidateId\r\n    );\r\n\r\n    function Candidates () public {\r\n        addCandidate(\"Barack\", \"Obama\", \"A good President\");\r\n        addCandidate(\"Joe\", \"Biden\", \"A we will see President\");\r\n        addCandidate(\"Donald\", \"Trump\", \"A great piece of cake :) \");\r\n\r\n    }\r\n\r\n    function addCandidate (string memory _name, string memory _lastname, string memory _jobTitle) private {\r\n        candidatesCount ++;\r\n        candidates[candidatesCount] = Candidate(candidatesCount, _name,_lastname,_jobTitle, 0);\r\n\r\n    }\r\n\r\n    function vote (uint _candidateId) public {\r\n        // require that they haven't voted before\r\n        require(!voters[msg.sender]);\r\n\r\n        // require a valid candidate\r\n        require(_candidateId > 0 && _candidateId <= candidatesCount);\r\n\r\n        // record that voter has voted\r\n        voters[msg.sender] = true;\r\n\r\n        // update candidate vote Count\r\n        candidates[_candidateId].voteCount ++;\r\n\r\n        // trigger voted event\r\n        emit votedEvent(_candidateId);\r\n    }\r\n}\r\n\r\n\r\n",
  "sourcePath": "C:/Users/andre/Desktop/starter_kit/src/contracts/Candidates.sol",
  "compiler": {
    "name": "solc",
    "version": "0.5.16+commit.9c3226ce.Emscripten.clang"
  },
  "schemaVersion": "3.3.2",
  "updatedAt": "2020-12-02T23:50:33.454Z",
  "networkType": "ethereum",
  "devdoc": {
    "methods": {}
  },
  "userdoc": {
    "methods": {}
  }
}