{
  "contractName": "IPFSHash",
  "abi": [
    {
      "constant": false,
      "inputs": [],
      "name": "resetHash",
      "outputs": [],
      "payable": false,
      "stateMutability": "nonpayable",
      "type": "function"
    },
    {
      "constant": false,
      "inputs": [
        {
          "internalType": "string",
          "name": "_ipfsHash",
          "type": "string"
        }
      ],
      "name": "setHash",
      "outputs": [],
      "payable": false,
      "stateMutability": "nonpayable",
      "type": "function"
    },
    {
      "constant": true,
      "inputs": [],
      "name": "getHash",
      "outputs": [
        {
          "internalType": "string",
          "name": "",
          "type": "string"
        }
      ],
      "payable": false,
      "stateMutability": "view",
      "type": "function"
    }
  ],
  "bytecode": "0x60806040526040518060400160405280600381526020017f4e614e00000000000000000000000000000000000000000000000000000000008152506000908051906020019061004f929190610062565b5034801561005c57600080fd5b50610107565b828054600181600116156101000203166002900490600052602060002090601f016020900481019282601f106100a357805160ff19168380011785556100d1565b828001600101855582156100d1579182015b828111156100d05782518255916020019190600101906100b5565b5b5090506100de91906100e2565b5090565b61010491905b808211156101005760008160009055506001016100e8565b5090565b90565b610372806101166000396000f3fe608060405234801561001057600080fd5b50600436106100415760003560e01c80631ed83fd414610046578063adb3e3ef14610101578063d13319c41461010b575b600080fd5b6100ff6004803603602081101561005c57600080fd5b810190808035906020019064010000000081111561007957600080fd5b82018360208201111561008b57600080fd5b803590602001918460018302840111640100000000831117156100ad57600080fd5b91908080601f016020809104026020016040519081016040528093929190818152602001838380828437600081840152601f19601f82011690508083019250505050505050919291929050505061018e565b005b6101096101a8565b005b6101136101f6565b6040518080602001828103825283818151815260200191508051906020019080838360005b83811015610153578082015181840152602081019050610138565b50505050905090810190601f1680156101805780820380516001836020036101000a031916815260200191505b509250505060405180910390f35b80600090805190602001906101a4929190610298565b5050565b6040518060400160405280600381526020017f4e614e0000000000000000000000000000000000000000000000000000000000815250600090805190602001906101f3929190610298565b50565b606060008054600181600116156101000203166002900480601f01602080910402602001604051908101604052809291908181526020018280546001816001161561010002031660029004801561028e5780601f106102635761010080835404028352916020019161028e565b820191906000526020600020905b81548152906001019060200180831161027157829003601f168201915b5050505050905090565b828054600181600116156101000203166002900490600052602060002090601f016020900481019282601f106102d957805160ff1916838001178555610307565b82800160010185558215610307579182015b828111156103065782518255916020019190600101906102eb565b5b5090506103149190610318565b5090565b61033a91905b8082111561033657600081600090555060010161031e565b5090565b9056fea265627a7a723158206118f7beb38f0f9f468e0c460515b4ec5ec6f0743871b0ebf6d98422e547ff0964736f6c63430005100032",
  "source": "pragma solidity ^0.5.16;\r\n\r\ncontract IPFSHash {\r\n\r\n    //Store last hash from IPFS\r\n    string  lastIpfsHash = 'NaN' ;\r\n\r\n   function resetHash() public\r\n   {\r\n       lastIpfsHash = 'NaN';\r\n   }\r\n   function setHash(string memory _ipfsHash) public {\r\n    lastIpfsHash = _ipfsHash;\r\n  }\r\n\r\n  function getHash() public view returns (string memory) {\r\n    return lastIpfsHash;\r\n  }\r\n\r\n\r\n}\r\n\r\n\r\n",
  "sourcePath": "C:/Users/andre/Desktop/starter_kit/src/contracts/LastIpfsHash.sol",
  "compiler": {
    "name": "solc",
    "version": "0.5.16+commit.9c3226ce.Emscripten.clang"
  },
  "schemaVersion": "3.3.2",
  "updatedAt": "2020-11-30T11:18:49.380Z",
  "networkType": "ethereum",
  "devdoc": {
    "methods": {}
  },
  "userdoc": {
    "methods": {}
  }
}